{
  "contractName": "ImageRegistry",
  "abi": [
    {
      "anonymous": false,
      "inputs": [
        {
          "indexed": true,
          "internalType": "bytes32",
          "name": "attestationHash",
          "type": "bytes32"
        },
        {
          "indexed": false,
          "internalType": "uint256",
          "name": "timestamp",
          "type": "uint256"
        },
        {
          "indexed": true,
          "internalType": "address",
          "name": "submitter",
          "type": "address"
        }
      ],
      "name": "AttestationStored",
      "type": "event"
    },
    {
      "inputs": [
        {
          "internalType": "bytes32",
          "name": "attestationHash",
          "type": "bytes32"
        }
      ],
      "name": "storeAttestation",
      "outputs": [],
      "stateMutability": "nonpayable",
      "type": "function"
    },
    {
      "inputs": [
        {
          "internalType": "bytes32",
          "name": "attestationHash",
          "type": "bytes32"
        }
      ],
      "name": "exists",
      "outputs": [
        {
          "internalType": "bool",
          "name": "",
          "type": "bool"
        }
      ],
      "stateMutability": "view",
      "type": "function",
      "constant": true
    },
    {
      "inputs": [
        {
          "internalType": "bytes32",
          "name": "attestationHash",
          "type": "bytes32"
        }
      ],
      "name": "getTimestamp",
      "outputs": [
        {
          "internalType": "uint256",
          "name": "",
          "type": "uint256"
        }
      ],
      "stateMutability": "view",
      "type": "function",
      "constant": true
    }
  ],
  "bytecode": "0x6080604052348015600f57600080fd5b506104008061001f6000396000f3fe608060405234801561001057600080fd5b50600436106100415760003560e01c806338a699a41461004657806342525d5d14610076578063d45c443514610092575b600080fd5b610060600480360381019061005b919061024a565b6100c2565b60405161006d9190610292565b60405180910390f35b610090600480360381019061008b919061024a565b6100e1565b005b6100ac60048036038101906100a7919061024a565b61019f565b6040516100b991906102c6565b60405180910390f35b6000806000808481526020019081526020016000205414159050919050565b60008060008381526020019081526020016000205414610136576040517f08c379a000000000000000000000000000000000000000000000000000000000815260040161012d9061033e565b60405180910390fd5b42600080838152602001908152602001600020819055503373ffffffffffffffffffffffffffffffffffffffff16817f1b7e813b2b5599b0bb7c7060e56b6e4663de75f778df7311a113c4962fe502d34260405161019491906102c6565b60405180910390a350565b60008060008084815260200190815260200160002054036101f5576040517f08c379a00000000000000000000000000000000000000000000000000000000081526004016101ec906103aa565b60405180910390fd5b600080838152602001908152602001600020549050919050565b600080fd5b6000819050919050565b61022781610214565b811461023257600080fd5b50565b6000813590506102448161021e565b92915050565b6000602082840312156102605761025f61020f565b5b600061026e84828501610235565b91505092915050565b60008115159050919050565b61028c81610277565b82525050565b60006020820190506102a76000830184610283565b92915050565b6000819050919050565b6102c0816102ad565b82525050565b60006020820190506102db60008301846102b7565b92915050565b600082825260208201905092915050565b7f416c726561647920657869737473000000000000000000000000000000000000600082015250565b6000610328600e836102e1565b9150610333826102f2565b602082019050919050565b600060208201905081810360008301526103578161031b565b9050919050565b7f4e6f7420666f756e640000000000000000000000000000000000000000000000600082015250565b60006103946009836102e1565b915061039f8261035e565b602082019050919050565b600060208201905081810360008301526103c381610387565b905091905056fea2646970667358221220050559864514a73ebe7780be8116446cd1a86b50115a2dc4c2a51fb8a54e81b064736f6c634300081f0033",
  "immutableReferences": {},
  "source": "// SPDX-License-Identifier: MIT\r\npragma solidity ^0.8.31;\r\n\r\ncontract ImageRegistry {\r\n    mapping(bytes32 => uint256) private attestations;\r\n\r\n    event AttestationStored(\r\n        bytes32 indexed attestationHash,\r\n        uint256 timestamp,\r\n        address indexed submitter\r\n    );\r\n\r\n    function storeAttestation(bytes32 attestationHash) external {\r\n        require(attestations[attestationHash] == 0, \"Already exists\");\r\n\r\n        attestations[attestationHash] = block.timestamp;\r\n\r\n        emit AttestationStored(\r\n            attestationHash,\r\n            block.timestamp,\r\n            msg.sender\r\n        );\r\n    }\r\n\r\n    function exists(bytes32 attestationHash)\r\n        external\r\n        view\r\n        returns (bool)\r\n    {\r\n        return attestations[attestationHash] != 0;\r\n    }\r\n\r\n    function getTimestamp(bytes32 attestationHash)\r\n        external\r\n        view\r\n        returns (uint256)\r\n    {\r\n        require(attestations[attestationHash] != 0, \"Not found\");\r\n        return attestations[attestationHash];\r\n    }\r\n}\r\n",
  "sourcePath": "D:\\Projects\\True Lens\\blockchain\\contracts\\ImageRegistry.sol",
  "compiler": {
    "name": "solc",
    "version": "0.8.31+commit.fd3a2265.Emscripten.clang"
  },
  "schemaVersion": "3.4.16",
  "updatedAt": "2025-12-18T05:42:49.062Z",
  "networkType": "ethereum",
  "devdoc": {
    "kind": "dev",
    "methods": {},
    "version": 1
  },
  "userdoc": {
    "kind": "user",
    "methods": {},
    "version": 1
  }
}